:100000000C9446000C9465000C9465000C946500FB
:100010000C9465000C9465000C9465000C946500CC
:100020000C9465000C9465000C9465000C946500BC
:100030000C9465000C94DE000C9465000C94650033
:100040000C9465000C9465000C9465000C9465009C
:100050000C9465000C9465000C9465000C9465008C
:100060000C9465000C9465000C9465000C9465007C
:100070000C9465000C9465000C9465000C9465006C
:100080000C9465000C9465000C94650011241FBE4F
:10009000CFEFD0E4DEBFCDBF11E0A0E0B1E0E2E5FC
:1000A000F6E000E00BBF02C007900D92A231B1074D
:1000B000D9F721E0A2E1B1E001C01D92A632B2075A
:1000C000E1F70E94D0020C9427030C940000CF9318
:1000D000DF9300D01F92CDB7DEB789837B836A831D
:1000E00089818A3031F48A819B81BC018DE00E9434
:1000F000670080EC90E0FC018081882F90E08072A6
:100100009927892BB1F386EC90E02981FC012083AB
:1001100080E090E00F900F900F90DF91CF910895C5
:10012000CF93DF93CDB7DEB781E890E02BE0FC0101
:10013000208388E890E02DE730E0FC0131832083C4
:100140008FE690E022E0FC01208384E890E0FC014F
:100150001182108280910E0190910F01A0911001E7
:10016000B09111018093130190931401A093150194
:10017000B09316018FE590E02FE530E0F901208182
:100180002068FC0120830000DF91CF910895CF9378
:10019000DF93CDB7DEB781E890E0FC01108200006C
:1001A000DF91CF910895CF93DF93CDB7DEB781E094
:1001B000809312010000DF91CF9108951F920F925A
:1001C00000905F000F92112400905B000F922F931C
:1001D0003F934F935F936F937F938F939F93AF93CF
:1001E000BF93EF93FF93CF93DF93CDB7DEB78091AB
:1001F000130190911401A0911501B091160101977E
:10020000A109B1098093130190931401A0931501E2
:10021000B09316018091130190911401A0911501E2
:10022000B0911601892B8A2B8B2B91F40E94D3005D
:1002300080910E0190910F01A0911001B0911101D8
:100240008093130190931401A0931501B0931601AC
:100250000000DF91CF91FF91EF91BF91AF919F91FE
:100260008F917F916F915F914F913F912F910F905F
:1002700000925B000F9000925F000F901F90189506
:10028000CF93DF9300D000D0CDB7DEB769837A83F8
:100290008B839C8389819A81AB81BC8180930E0181
:1002A00090930F01A0931001B093110180910E0162
:1002B00090910F01A0911001B09111018093130151
:1002C00090931401A0931501B093160100000F90B4
:1002D0000F900F900F90DF91CF910895CF93DF9300
:1002E000CDB7DEB780912201909123018230910534
:1002F00009F469C08330910528F4009779F00197DB
:10030000A1F015C18430910509F4CDC08430910568
:1003100008F49FC0059709F403C109C181E090E08A
:1003200090932301809322010CC120911B013091F5
:100330001C0140911D0150911E0180911701909167
:100340001801A0911901B0911A01281739074A071D
:100350005B07D0F480911B0190911C01A0911D01BD
:10036000B0911E010196A11DB11D80931B019093B8
:100370001C01A0931D01B0931E0181E090E09093B9
:10038000230180932201D8C020911B0130911C01D0
:1003900040911D0150911E0180911701909118010B
:1003A000A0911901B0911A01281739074A075B0774
:1003B00009F0C2C010921F0182E090E090932301E7
:1003C00080932201B9C080911F01843160F4809133
:1003D0001F018F5F80931F0182E090E090932301C3
:1003E00080932201ABC080912401882361F0109298
:1003F0001F0181E08093200183E090E0909323012E
:10040000809322019BC0809125018823A1F082E086
:100410008093200110921F0110921B0110921C0169
:1004200010921D0110921E0183E090E09093230131
:100430008093220183C080911F01843109F07EC026
:1004400010921F0184E090E0909323018093220199
:1004500075C080912401882369F480912001813046
:1004600049F41092200184E090E09093230180935E
:10047000220118C080912501882369F48091200110
:10048000823049F41092200185E090E0909323019E
:100490008093220107C083E090E090932301809332
:1004A00022014FC04EC080911F01883260F48091BC
:1004B0001F018F5F80931F0184E090E090932301E0
:1004C000809322013DC0809125018823A1F01092E4
:1004D0001F0110921B0110921C0110921D0110921D
:1004E0001E0182E08093200183E090E0909323013D
:1004F0008093220125C080911F01883209F5109256
:100500001F0110921B0110921C0110921D011092EC
:100510001E0182E090E0909323018093220110C09D
:1005200081E090E090932301809322010AC0109211
:1005300023011092220105C0000003C0000001C089
:100540000000809122019091230182309105A9F051
:100550008330910528F40097E1F0019751F01CC019
:100560008430910571F084309105A8F0059769F009
:1005700013C081E0809321010FC082E080932101AC
:100580000BC084E08093210107C085E080932101A6
:1005900003C0000001C000000000DF91CF9108956A
:1005A000CF93DF93CDB7DEB781E290E0FC011082FC
:1005B00082E290E02FEFFC01208384E290E02FEFB5
:1005C000FC01208385E290E0FC01108264E670E08B
:1005D00080E090E00E9440010E9490001092230170
:1005E0001092220188EC90E0A0E0B0E08093170127
:1005F00090931801A0931901B0931A0110921F0152
:1006000080E290E0FC018081882F90E08170992742
:1006100021E0892B09F020E0822F8093240180E2E1
:1006200090E0FC01808180958270809325010E947A
:100630006E010000809112018823E1F310921201F3
:1006400085E290E020912101FC012083D9CFF8942C
:02065000FFCFDA
:10065200000000020000000067000000000001002E
:02066200000096
:00000001FF
